:020000040800F2
:1000000038120020010100082930000835280008B6
:1000100025300008D90C0008954E000800000000AB
:10002000000000000000000000000000FB3B000892
:10003000251E000800000000213600089544000835
:100040001B0100081B0100081B0100081B01000820
:100050001B0100081B0100081B0100081B01000810
:100060001B0100081B0100081B0100081B01000800
:100070001B0100081B0100081B0100081B010008F0
:100080001B0100081B0100081B0100081B010008E0
:100090001B0100081B0100081B0100081B010008D0
:1000A0001B0100081B0100081B0100081B010008C0
:1000B0001B0100081B010008914500081B010008F6
:1000C0001B0100081B0100081B0100081B010008A0
:1000D0001B010008C1490008594A0008E14A00080C
:1000E0001B0100081B0100081B010008DFF80CD0F1
:1000F00000F03CFC00480047B960000838120020BE
:100100000648804706480047FEE7FEE7FEE7FEE7B1
:10011000FEE7FEE7FEE7FEE7FEE7FEE7994400089C
:10012000ED000008202A04DB203A00FA02F100204A
:1001300070479140C2F1200320FA03F31943904025
:100140007047202A04DB203A21FA02F00021704790
:1001500021FA02F3D040C2F120029140084319462F
:100160007047D2B201E000F8012B491EFBD2704764
:100170000022F6E710B513460A4604461946FFF773
:10018000F0FF204610BD421C10F8011B0029FBD1D6
:10019000801A7047F0B480EA0102D40F4200B2EB3B
:1001A000410F02D20246084611464A0042D0C30D12
:1001B000DDB2C1F3C752AD1A202D35DAC1F31601F5
:1001C00041F4000204B15242C5F1200602FA06F1E0
:1001D0002A411044B3EBD05F23D0C4B1012DA0EB72
:1001E000C35009DCF0BC4FF0004202EAC352DBB25C
:1001F00000F5000000F016BB400000F1807000EB3D
:10020000C350A0F1807040EAD170490009E049086C
:1002100041EAC071A0EBC35000F50000400800EBBC
:10022000C350F0BC00F0F5BA6142012202EB41017B
:10023000001BF6E7F0BC704781F00041AAE780F0B0
:100240000040A7E780EA010210B502F00043400039
:1002500022D04A001FD0010E01EB1261C0F35600FC
:10026000C2F3560240F4000042F40002A0FB022058
:1002700000047F39140400D0401C50EA124001D41D
:100280004000491EC2B20C0604EBD010401C4008CE
:10029000802A02D003E0002010BD20F001000029D8
:1002A00000DA0020184310BD30B480EA010202F0E9
:1002B000004530F0004221F0004013D090B1C30D52
:1002C000D40DC2F31601C0F31600E41A41F4000184
:1002D00040F400027D34914201D3641C00E04900E7
:1002E000002C02DA30BC002070474FF400000023DD
:1002F000914201D3891A034340084FEA4101F7D1E3
:1003000051B1914202D14FF0004105E002D24FF0CD
:10031000010101E06FF0010103EBC450284430BC3F
:1003200000F077BA2DE9FE4F804681EA0300C00F46
:100330000C46009021F0004123F00045B8EB02008C
:10034000A94105D24046214690461C460B4602462E
:1003500023F00040104347D0270DC7F30A00C3F332
:100360000A510290401A019040286BDAC3F313003F
:1003700040F4801B0098924620B10023D2EB030A80
:1003800063EB0B0B01985946C0F140025046FFF752
:10039000C9FE06460D4650465946019A00F027FA16
:1003A00010EB08006141002487EA115284EAE773E8
:1003B0001A4340D0009A62B3019A012A4FEA0752C9
:1003C00015DC001B61EB02014FF0004202EA07520C
:1003D000CDE90042001C41F5801132462B4600F069
:1003E0005EFA03B0BDE8F08F40462146F9E7001BF6
:1003F00061EB0201001C41F5801300185B412018DD
:10040000A2F5001747EB030140EAD570B6196D411C
:1004100011E06D084FEA360645EAC0754FEA07520B
:10042000001B61EB0201001C41F5801149084FEAF5
:1004300030000019514132462B4603B0BDE8F04F61
:1004400000F01EBA0098012240000023D0EB020207
:1004500063EBE073009821464FEAE074B8EB0000CC
:1004600061EB0401E9E783F000435BE781F00041C1
:1004700058E72DE9FE4F81EA030404F0004421F01F
:10048000004100944FF0000B23F0004350EA0104B8
:100490005ED052EA03045BD0C3F30A54C1F30A5599
:1004A0002C44A4F2F3340194A0FB0254C1F31301D1
:1004B00041F48011C3F3130343F4801301FB02449E
:1004C00000FB034E840A970A44EA815447EA8357A3
:1004D000A4FB076802958D0A05FB07854FEA932C5C
:1004E00004FB0C542705029D4FEA065847EA1637CD
:1004F000B5EB08056EEB070C870E920E47EA8117E5
:1005000042EA8312A7FB0201B6EB0B0164EB000485
:100510002B0D43EA0C335E1844EB1C50DA4651466F
:10052000E7FB0201C5F313044FEA0B3343EA14530C
:100530004FEA0432019C43EA0603A4F10C0402943E
:10054000009CCDE900B400F0AAF903B0BDE8F08F3B
:1005500000200146F9E72DE9F04D81EA030404F09B
:10056000004B21F0004514464FF0000A23F00041F3
:1005700050EA050220D054EA01021DD0C5F30A5703
:100580000246C5F31303C1F31300C1F30A5640F446
:10059000801543F48013A7EB0608101BD64608F21B
:1005A000FD3873EB050002D308F1010801E0921851
:1005B0005B41B8F1000F03DA00200146BDE8F08D81
:1005C00000204FF48011064684460EE0171B73EBA3
:1005D000050705D3121B63EB050306434CEA010C28
:1005E00049084FEA300092185B4150EA0107EDD10B
:1005F00052EA030012D082EA040083EA05010843AC
:1006000005D0101BAB4106D20122002306E00022D8
:100610004FF0004302E06FF0010253101AEB0600A6
:100620004CEB085110EB0A0041EB0B01BDE8F04D1B
:1006300000F026B9C10F80EAE0700844CA0796238B
:10064000002100F0EFB896230022114600F0EAB82E
:100650000EB540F2334102910021CDE900110A4666
:100660000B4600F01CF903B000BD70B5C1F30A528F
:1006700001F000450024C1F3130140F2FF3341F4BF
:1006800080119A4201DA002070BD40F233439A4251
:10069000A2F2334203DC5242FFF753FD00E09040E8
:1006A0002C43F1D0404270BDC1F30A5210B5C1F3E2
:1006B000130140F2FF3341F480119A4201DA002025
:1006C00010BD40F233439A42A2F2334203DC52425D
:1006D000FFF737FD10BD904010BD00F0004230F034
:1006E00000400AD0C10D01F56071C0F3160042EA66
:1006F0000151C2084007114370470020014670476E
:1007000030B5041E71F1000404DB4FF00044404298
:1007100064EB0101141E73F1000405DB1C464FF06D
:100720000043524263EB04038B4208BF824230BD58
:1007300030B5041E71F1000404DB4FF00044404268
:1007400064EB0101141E73F1000405DB1C464FF03D
:100750000043524263EB0403994208BF904230BD0C
:1007600030B50B46014600202022012409E021FA81
:1007700002F59D4205D303FA02F5491B04FA02F57E
:100780002844151EA2F10102F1DC30BD2DE9F05F15
:100790000546002092469B468846064681464024F0
:1007A0001BE02846414647462246FFF7CAFC53460F
:1007B0005A46C01A914110D3114618462246FFF7F7
:1007C000B1FC2D1A67EB01084F462246012000219B
:1007D000FFF7A8FC17EB00094E41201EA4F101040D
:1007E000DFDC484631462A464346BDE8F09F202AD2
:1007F00006DBCB17203A41FA02F043EAE07306E049
:1008000041FA02F3D040C2F1200291400843194658
:1008100070470029A8BF7047401C490008BF20F05E
:100820000100704710B4B0FA80FC00FA0CF050EAF6
:10083000010404BF10BC704749B1CCF1200421FA77
:1008400004F411FA0CF118BF012121430843A3EB72
:100850000C01CB1D4FEA00614FEA102042BF00207F
:1008600010BC704700EBC35010440029A4BF10BC5B
:100870007047401C490008BF20F0010010BC7047C1
:1008800010B5141E73F1000408DA401C41F1000198
:1008900092185B411A4301D120F0010010BD2DE9EF
:1008A000F04D92469B4611B1B1FA81F202E0B0FAE6
:1008B00080F220329046FFF735FC04460F4640EAAE
:1008C0000A0041EA0B0153465A46084313D0114629
:1008D00053EA010019D0C8F140025046FFF731FC3D
:1008E00005460E46504659464246FFF71BFC084354
:1008F00005D0012004E020463946BDE8F08D0020F7
:10090000054346EAE0762C4337430A986305E40A38
:10091000A0EB08000022FD0A44EA47540A3002D541
:1009200000200146E9E7010510196941DDE90845A4
:1009300000196941BDE8F04DA2E7C1F30A52C1F3C5
:10094000130140F2FF3341F480119A4202DA002091
:100950000146704740F233439A42A2F2334202DC2E
:100960005242FFF7EEBBFFF7DDBB0000064C074D20
:1009700006E0E06840F0010394E80700984710346F
:10098000AC42F6D3FFF7B6FB80970008A0970008AB
:1009900021B1826842F00102826003E0826822F0A5
:1009A00001028260704721B1826842F480728260E5
:1009B00003E0826822F480728260704710B50446BA
:1009C0001248844208D10121401502F0DDFE0021C9
:1009D000601502F0D9FE17E00D48844208D10121CC
:1009E000001502F0D1FE0021201502F0CDFE0BE033
:1009F0000848844208D10121C80302F0C5FE002145
:100A00004FF4004002F0C0FE10BD00000024014081
:100A100000280140003C0140014600208A6802F0A5
:100A200004020AB1012000E00020704701460020C6
:100A30008A6802F008020AB1012000E00020704735
:100A400030B502460020002350680F4C20400D793D
:100A50000C6844EA05242043506090680B4C204009
:100A6000D1E902542C434D7944EA45042043906077
:100A7000D06A20F470000C7C641EE4B2234340EA88
:100A80000350D06230BD0000FFFEF0FFFDF7F1FF24
:100A9000F0B504460D4600200021092D11DDE06867
:100AA000A5F10A0606EB4607072606FA07F1884372
:100AB000A5F10A0606EB460603FA06F10843E060D4
:100AC0000CE0206905EB4507072606FA07F1884385
:100AD00005EB450603FA06F108432061072A0FDA01
:100AE000606B561E06EB86071F2606FA07F1884341
:100AF000561E06EB860605FA06F10843606322E0FF
:100B00000D2A0FDA206BD61F06EB86071F2606FA82
:100B100007F18843D61F06EB860605FA06F108435F
:100B2000206310E0E06AA2F10D0606EB86071F269F
:100B300006FA07F18843A2F10D0606EB860605FAD0
:100B400006F10843E062F0BD816841F00801816070
:100B5000704721B1826842F4A002826003E082689B
:100B600022F4A00282607047816841F00401816034
:100B70007047000030B10749096841F40001054A97
:100B8000116005E00349096821F40001014A116080
:100B9000704700000824014000B591B001210820F1
:100BA00002F0E2FD0220ADF82C0000208DF82F00AD
:100BB0000BA9414801F03DFC0121084602F0A4FDCB
:100BC0003E4800F08FFE3E4800903E4801900020D5
:100BD000029028200390002004908020059040007F
:100BE00006908000079020200890000209900020C5
:100BF0000A906946314800F01BFF0121480202F0CB
:100C0000B3FD4FF4004002F073FD2D484C38FFF760
:100C1000D5FE00200C9001208DF834008DF83500B1
:100C20004FF460200E9000200F9002208DF84000BD
:100C30000CA923484C38FFF703FF052301220921A3
:100C40001F484C38FFF724FF0523022211211C48BE
:100C50004C38FFF71DFF012119484C38FFF7A3FE60
:100C6000012117484C38FFF793FE15484C38FFF721
:100C70006BFF0120FFF77EFF0A2004F0FDFD00BF9F
:100C80000F484C38FFF7D2FE0028F9D10C484C38F9
:100C9000FFF76AFF00BF0A484C38FFF7BDFE002887
:100CA000F9D10121054800F011FE012104484C381A
:100CB000FFF74FFF11B000BD000C014008000240DB
:100CC0004C2401408405002010B5012002F06CFD89
:100CD000002002F069FD10BD00BFFEE710B5FFF770
:100CE0005BFF10BD2DE9F0411148406911490968C9
:100CF000401A1149086002F021FE3C21B0FBF1F0DE
:100D00000E4908600C480068FFF7A2FC06460C4A32
:100D10000C4BFFF7AEFB044622460B460AA004F03C
:100D2000BBF80648016813A004F0B6F8BDE8F081EE
:100D3000C800002064000020680000206C00002033
:100D40002D431CEBE2361A3F23B3E4B5E7CAC2BC1D
:100D5000FEA3BAB6CFB5E7CAB1A3ACB3E4C8EBB54E
:100D6000E7C4DCC1BF2530312E31664B57680D0A10
:100D70000000000023B3E4B5E7CAC2BCFEA3BAB6C4
:100D8000CFB5E7CAB1A3ACB3E4B5E7CAB1B3A4CE5B
:100D9000AA2575B7D6D6D30D0A0000002DE9F04775
:100DA000F5480078072868D2DFE800F00468D7FD2E
:100DB000FCFBFA00F14800780C2845D102F05AFEFD
:100DC0000020EF490860EF480068012808D1EE488C
:100DD000006828B9002005F077FAEB4908604CE07C
:100DE000E848006801281BD1E7480068C0B1E64820
:100DF00000680088B0F5FA6F01DD012000E00020F6
:100E000000283AD0E048006805F07AFA0020DE4970
:100E10000860DEA004F040F80620D74908702CE0F6
:100E2000D848006810B9D848006818B3D548006899
:100E300000BBD5480068E8B1D348006805F060FA07
:100E40000020D149086018E0CC480078092812D168
:100E5000D8A004F021F8CC48006830B1CA48006836
:100E600005F04EFA0020C84908600120D749086003
:100E7000C149087001E0C14800787DE3BF480078AF
:100E80000C280ED1D2A004F007F802F0F3FD0020E8
:100E9000CE4908600120D44908600020B649087096
:100EA0005AE0B6480078092854D1D0480068002894
:100EB0004DD1CF480068002849D1B14800680028CA
:100EC00045D1CC480068002841D1CBA003F0E4FF15
:100ED000D2480088FFF7BCFB06460022D04BFFF744
:100EE0003AFB044622460B46CEA003F0D5FFD84875
:100EF000008820B1012806D002281BD114E0D5A01B
:100F000003F0CAFF16E0DE4800883C2190FBF1F2B6
:100F100001FB1204DA48008890FBF1F522462946CD
:100F2000D8A003F0B9FF05E0E2480188E2A003F091
:100F3000B3FF00BF00BF02F0ABFD02208E49087076
:100F400001208F4908600020E649087004E08C48C1
:100F5000006801E0894800780EE3884800780C2892
:100F600009D1E1A003F098FF00209849086005200E
:100F70008149087036E081480078092832D07F48DE
:100F8000007806282ED19948006800282AD1984870
:100F90000068002826D1DEA003F07EFFE94803E0C8
:100FA000DFE2C2E2DCE01EE04069E7490860E549B3
:100FB0004869FFF74DFB0646E44AE54BFFF759FA4F
:100FC000044622460B46E3A003F066FF002002F031
:100FD000FAFCEEA003F060FF0120F5490860032051
:100FE00065490870C8E2654800780C280ED1F1A068
:100FF00003F052FF0420BB490870002073490860C9
:10100000EB49086005205C490870A8E05B4800785F
:1010100009280ED10320B3490870F1A003F03CFF6A
:101020000020E3490860FFF75DFE02205249087086
:1010300095E0524800780628E7D14FF0000A84482E
:10104000008820B1012803D0022839D112E037E00E
:1010500002F074FC3C21B0FBF1F089490988884218
:1010600007D3EBA003F018FF09209E4908704FF04A
:10107000010A25E08F480088FFF7EAFA0646F14AA0
:10108000F14BFFF7F6F904460D46AE494969AE4A01
:101090001268881AFFF7DCFA0646AC4AAC4BFFF739
:1010A000E8F9804622462B46FFF742FB07D8E7A027
:1010B00003F0F2FE0A208B4908704FF0010A00BFCE
:1010C00000BFEF48006858B9EE48006840B948488A
:1010D000006828B9BAF1000F02D14648006890B301
:1010E000E948006828B9002005F0EEF8E6490860F4
:1010F00004E00021E448006805F006F9E0480068D3
:1011000010B1012077490870DE48006810B1022054
:10111000744908703648006828B1DC48006810B18E
:101120000520704908703248006828B1D848006826
:1011300010B106206B4908702E48006810B10820D5
:101140006849087000E009E0D2A003F0A5FEFFF7AF
:10115000C9FD02F08FFC04200749087000BF0BE2B4
:10116000064800780C2804D004480078092801D1EA
:10117000A4E1D9E1B6E100005400002055000020B0
:101180002C2000223C2000228400002023B0B2C882
:10119000ABCAC2BCFEA3BABCECB2E2B5BDBDD3B40F
:1011A000A5C6F7CAE4B3F6CEDEB7A8B6CFBFAA0D80
:1011B0000A00000023B3E4B5E7CAC2BCFEA3BABC70
:1011C000ECB2E2B5BDB2E5C7B90D0A002820002295
:1011D00023B3E4B5E7CAC2BCFEA3BABCECB2E2B525
:1011E000BDB0CEC7B90D0A0034200022082000226D
:1011F000002000224020002223B3E4B5E7CAC2BC8D
:10120000FEA3BAD7D4BCECD5FDB3A3A3ACD7BCB175
:10121000B8C6F4B6AFB3E4B5E70D0A005800002035
:101220000000244023B3E4B5E7CAC2BCFEA3BAD38E
:10123000C3BBA7C6F4B6AFCAB1D1A1D4F1B5E7C15B
:10124000F7CEAA2530312E3166410D0A000000008C
:101250005C00002023B3E4B5E7CAC2BCFEA3BAD346
:10126000C3BBA7C6F4B6AFCAB1C9E8D6C3B2BBD731
:10127000F6B3E4B5E7CDA3D6B9CFDED6C60D0A00E6
:101280005E00002023B3E4B5E7CAC2BCFEA3BAD314
:10129000C3BBA7C6F4B6AFCAB1C9E8D6C3B3E4B5F9
:1012A000E7CAB1BCE4B3A4B6C8CEAA256448256495
:1012B0004D0D0A006000002023B3E4B5E7CAC2BCAC
:1012C000FEA3BAD3C3BBA7C6F4B6AFCAB1C9E8D6AA
:1012D000C3CFDED6C6C4DCC1BFCEAA25646B5768B7
:1012E0000D0A00005600002023B3E4B5E7CAC2BCD3
:1012F000FEA3BABCECB2E2B5BDD4DA50574DCAE495
:10130000B3F6C6DABCE4B0CEC7B90D0A00000000DF
:1013100023B3E4B5E7CAC2BCFEA3BACADCB5E7C9C9
:10132000E8B1B8D7D4BCECCDA8B9FDA3ACC7EBC726
:10133000F3CAE4B3F6A3ACC6F4B6AFCAE4B3F60D91
:101340000A000000C8000020640000202D431CEBB0
:10135000E2361A3F23B3E4B5E7CAC2BCFEA3BAD74C
:10136000BCB1B8C6F4B6AFB3E4B5E7CAB1A3ACCF6D
:10137000B5CDB3BCC7C2BCB5E7C4DCC1BF253031F5
:101380002E31664B57680D0A0000000023B3E4B508
:10139000E7CAC2BCFEA3BAD7BCB1B8C6F4B6AFB3F5
:1013A000E4B5E7A3ACCAB1BCE4D6D8D6C30D0A00F5
:1013B0000420002223B3E4B5E7CAC2BCFEA3BABC32
:1013C000ECB2E2B5BDD4DAB3E4B5E7C6DABCE4B05A
:1013D000CEC7B9A3A8BEAFB8E6A3A90D0A00000006
:1013E00023B3E4B5E7CAC2BCFEA3BABCECB2E2B513
:1013F000BDD4DAB3E4B5E7C6DABCE4A3ACCADCB565
:10140000E7B6CBC7EBC7F3B6CFB5E70D0A000000D0
:1014100023B3E4B5E7CAC2BCFEA3BABCECB2E2B5E2
:10142000BDD4DAB3E4B5E7C6DABCE4A3ACB4EFB537
:10143000BDD3C3BBA7CFDED6C6B5C4CAB1BCE40D0D
:101440000A0000009A9999999999B93F23B3E4B594
:10145000E7CAC2BCFEA3BABCECB2E2B5BDD4DAB3F3
:10146000E4B5E7C6DABCE4A3ACB4EFB5BDD3C3BB07
:10147000A7CFDED6C6B5C4C4DCC1BF0D0A000000CC
:10148000182000222020002280000020242000229A
:101490001420002223B3E4B5E7CAC2BCFEA3BAB548
:1014A000BDB4EFB6CFB5E7CCF5BCFEA3ACBDF8C874
:1014B000EBD3D0D0F2B6CFB5E70D0A0030A003F0E1
:1014C000EBFC3B48006830B13948006804F018FF75
:1014D000002037490860002036490860012036495D
:1014E000087021E03548007806281DD13048006892
:1014F000008840F6B831884201DD012000E000207C
:1015000090B12FA003F0C8FC2948006830B12848EA
:10151000006804F0F5FE00202549086000202549F8
:10152000086001202449087026E0244800780C282F
:101530000AD132A003F0B0FC02F09CFA0120384935
:10154000086000201C4908701C480078092805D153
:1015500034A003F0A1FC0220174908701748007856
:101560000AE039A003F098FC01202D49086002F040
:1015700081FA00200F49086000BFBDE8F087000035
:1015800023B3E4B5E7CAC2BCFEA3BAD3D0D0F2B647
:10159000CFB5E7C6DABCE4A3ACCADCB5E7B6CBC7C7
:1015A000EBC7F3B6CFB5E7C8B7C8CF0D0A00000048
:1015B000800000200420002254000020550000205C
:1015C00023B3E4B5E7CAC2BCFEA3BAD3D0D0F2B607
:1015D000CFB5E7B9FDB3CCD6D0CADCB5E7B6CBB34F
:1015E000ACCAB1CFECD3A6A3ACBDABBBE1B4F8D4CD
:1015F000D8C7BFD6C6B6CFBFAA0D0A0023B3E4B57D
:10160000E7CAC2BCFEA3BACEDEC7B970776DC4A369
:10161000CABDBCECB2E2B5BDB0CEC7B90D0A000080
:101620003420002223B3E4B5E7CAC2BCFEA3BACE7D
:10163000DEC7B970776DC4A3CABDBCECB2E2B5BD5C
:10164000B2E5C7B90D0A000023B3E4B5E7CAC2BCCE
:10165000FEA3BAD7B4CCAC30B4A5B7A2A3ACB4E661
:10166000D4DAD2ECB3A3A3A10D0A000070B5002612
:1016700008213E4800F0D8FB3D480078032816D0EA
:101680003CA003F009FC11E00120454908606420FA
:1016900004F0F2F800204349C1F8B401642004F0DA
:1016A000EBF84148006808B104F036FEECE73FA0D3
:1016B00003F0F2FB01203A490860142004F0DCF842
:1016C00000203849C1F8B401322004F0D5F80120D7
:1016D00033490860142004F0CFF800203149C1F8E4
:1016E000B4013DE0002409E0204800EBC40002689A
:1016F0004168104600F0E0FA601CC4B2032CF3DB32
:1017000000242AE0194800EBC4010A684968104621
:1017100000F0DEF905462A46214630A003F0BCFB66
:1017200040F22620854208DD35A003F0B5FB0026F7
:101730004FF4FA7004F0A0F811E045B935A003F0B9
:10174000ABFB00264FF4FA7004F096F807E013A004
:1017500003F0A2FB0126601CC4B2032CD2DB00BF45
:10176000002EBFD030A003F097FB70BDF80B002017
:10177000AA00002023B2E2CEC2CFB5CDB3A3BAB245
:10178000E2CEC2B4ABB8D0C6F7CAFDC1BFB2BBD7B8
:10179000E3A3ACBEDCBEF8C6F4B6AF3A0D0A000057
:1017A000B4812142008021423001214223B2E2CEA5
:1017B000C2CFB5CDB3A3BAB2E2CEC2B4ABB8D0C635
:1017C000F7CBD1CBF7BDE1CAF8A3ACBFAACABCB274
:1017D000E2CAD4CEC2B6C83A0D0A000023B2E2CEA5
:1017E000C2CFB5CDB3A3BAB4ABB8D0C6F72564B5F4
:1017F000C4CEC2B6C8B6C1CAFDCAC73A2564000085
:10180000212121CEC2B6C8CCABB8DF2121210D0ADF
:1018100000000000212121CEC2B6C8CCABB5CD213D
:1018200021210D0A0000000023B2E2CEC2CFB5CDC7
:10183000B3A3BACEC2B6C8B2E2CAD4BDE1B9FBCD39
:10184000A8B9FD0D0A0000001E48006841F294117D
:10185000884203D200201C49087032E01948006811
:1018600041F29411884209D31648006841F64C5160
:10187000884203D206201449087022E0114800680B
:1018800041F64C51884209D30E48006842F60411D3
:10189000884203D209200C49087012E00948006808
:1018A00042F60411884209D30648006843F2BC415D
:1018B000884203D20C200449087002E0FF2002494C
:1018C00008707047500000205500002021B10268C8
:1018D00042F00102026004E002684FF6FE731A4013
:1018E0000260704701684FF6FE72114001600021EE
:1018F000016041608160C1604B49884208D14A491A
:101900000839496841F00F01474A083A51608AE0B6
:1019100045491431884208D143490839496841F0A2
:10192000F001414A083A51607DE03F492831884240
:1019300008D13D490839496841F470613A4A083A8A
:10194000516070E038493C31884208D13649083945
:10195000496841F47041344A083A516063E03249C1
:101960005031884208D130490839496841F4702122
:101970002D4A083A516056E02B496431884208D11B
:1019800029490839496841F47001274A083A5160E9
:1019900049E025497831884208D123490839496806
:1019A00041F07061204A083A51603CE01F4988428A
:1019B00006D1011F096841F00F01021F116032E0DA
:1019C0001A491431884208D11849091F096841F0A1
:1019D000F001164A121F116025E01449283188428F
:1019E00008D11249091F096841F470610F4A121F9A
:1019F000116018E00D493C31884208D10B49091F9C
:101A0000096841F47041094A121F11600BE007494F
:101A10005031884207D10549091F096841F47021F6
:101A2000024A121F11607047080002400804024079
:101A300010B50022026847F6F0739A430C6A8B686F
:101A400023430C6923434C6923438C692343CC69AA
:101A500023434C6A23438C6A23431A430260CB68B6
:101A600043600B6883604B68C36010BD10B50024F1
:101A70001548006820F47040134908600846006863
:101A800040F48040086004E0601CC4B2012003F010
:101A900019FF0E48006808B1C82CF5DBC82C01DB23
:101AA000012010BD002404E0601CC4B2012003F03A
:101AB00009FF0648006808B9F02CF5DBF02C01DBC3
:101AC0000120EEE70020ECE7000C01400C812142F0
:101AD0002DE9FF5F05460E4600F0CCF8FFF7C6FF84
:101AE000002185EA01007140084310D0552000F024
:101AF00033F92846314600F069F9BE2000F02CF990
:101B000000F0A6F8814600F0A3F804460BE0CC20D4
:101B100000F022F9BE2000F01FF900F099F881468C
:101B200000F096F80446072C08DDE043C4B26FEAE3
:101B3000090000F0FF094FF0000B01E04FF0010B2E
:101B4000A2464FEA0A200FFA80FA0AEB09000FFAC0
:101B500080FA5046FEF76EFD0190FEF7BEFD0022B2
:101B60000A4BCDE90201FEF784FC0746FEF77DFD36
:101B70000FFA80FABBF1000F03D0504604B0BDE865
:101B8000F09FCAF1000000B2F8E700000000E43F57
:101B900008B50121082001F0E7FD0820ADF800009C
:101BA00010208DF8030003208DF8020069460648D6
:101BB00000F03FFC0821044800F019FD00F05AF83D
:101BC000FFF754FF08BD0000000C014010B500F005
:101BD00009F8044600F006F840EA4400C4B2204682
:101BE00010BD000010B51748006820F4704015497A
:101BF00008600846006840F4405008600020124920
:101C00000860022003F05EFE01201049C1F88C013B
:101C10000C48006820F470400A49086008460068D3
:101C200040F4804008600C2003F04CFE06488038E9
:101C3000006808B1012400E00024322003F042FED5
:101C4000204610BD000C01408C81214200802142C1
:101C500070B50026012508E0FFF7C4FF0446E00147
:101C600040EA6600C6B2681CC5B2082DF4DD3046F5
:101C700070BD000010B50D48006820F470400B499D
:101C800008600846006840F4405008600020084999
:101C9000086040F2EE2003F015FE01200549C1F86E
:101CA0008C010F2003F00EFE10BD0000000C01405F
:101CB0008C8121420080214270B504460D46FFF719
:101CC000D9FFFFF7D3FE002184EA010069400843F1
:101CD0000AD0552000F040F82046294600F076F85A
:101CE000442000F039F805E0CC2000F035F844201D
:101CF00000F032F870BD000010B5044613480068CB
:101D000020F47040114908600846006840F44050D3
:101D100008606CB100200E490860022003F0D2FD7B
:101D200001200C49C1F88C013C2003F0CBFD0CE0F4
:101D30000020074908603C2003F0C4FD012005494C
:101D4000C1F88C01022003F0BDFD10BD000C014064
:101D50008C8121420080214270B5044618480068F9
:101D600020F47040164908600846006840F440506E
:101D70000860012520E004F0010664106EB1002027
:101D800010490860022003F09DFD01200E49C1F8B2
:101D90008C013C2003F096FD0CE00020094908600E
:101DA0003C2003F08FFD01200749C1F88C0102207F
:101DB00003F088FD681CC5B2082DDCDD70BD000095
:101DC000000C01408C812142008021422DE9F04726
:101DD0000746884600240DE0E2003D464646284678
:101DE0003146FEF7AEF900F0FF094846FFF7B4FFB1
:101DF000601CC4B2082CEFDBBDE8F08702460B463E
:101E000002B113B94FF0FF307047002100BF04E06A
:101E1000505C00B903E0481CC1B29942F8DB00BF36
:101E20000846F1E7704700002DE9F34F8FB00546F3
:101E30000DB1109820B94FF0FF3011B0BDE8F08F10
:101E400010980390039804F009FA0746002600242E
:101E5000002002904FF00108019081463846039916
:101E6000FEF786F900BFD4E0CDF80480FFF702FF4B
:101E70004FF4F07003F026FDF020FFF76DFF012610
:101E800024E0FFF7A3FE029005EBC400721E0121BF
:101E9000D0E900AB0020CDE9050108460599FEF721
:101EA00041F90AEA000A0BEA010B00218AEA010A59
:101EB0008BEA010B5AEA0B0A03D00120FFF71CFF43
:101EC00002E00020FFF718FF701C46B2385DB042F8
:101ED000D7DA385D401C46B296E0FFF777FE0290F5
:101EE000029800F0030002903E55029830B101289C
:101EF0004FD0022866D003287DD17DE008213846E6
:101F0000FFF77CFF8146B9F1000F05DA384603F090
:101F10000DFD6FF0010090E7385D07F8090005EB53
:101F2000C90005EBC40206CA06C005EBC400721E58
:101F30000121D0E900AB0020CDE90901084609994B
:101F4000FEF7F0F80A46C1430AEA010A2BEA020B3F
:101F500005EBC400C0E900AB05EBC900721E01210E
:101F6000D0E900BA0020CDE9070108460799FEF73D
:101F7000D9F84BEA00024AEA010A05EBC900C0E9B8
:101F8000002A0020FFF7B8FE08F1010000F0FF086A
:101F900037E005EBC400721E0121D0E900AB002040
:101FA000CDE90B0108460B99FEF7BCF82AEA0000C0
:101FB0002BEA010B05EBC401C1E9000B0020FFF780
:101FC0009BFE1EE005EBC400721E0121D0E900BAA1
:101FD0000020CDE90D0108460D99FEF7A3F84BEA64
:101FE00000024AEA010A05EBC400C0E9002A012008
:101FF000FFF782FE05E003E04FF00008002400E058
:1020000000BF00BF701C46B2402E7FF766AF601C59
:1020100044B21098844203DA01984045FFF624AF99
:10202000044880F800803846CDF8108003F07EFC2C
:10203000049802E7AA00002008B5002000900122C1
:102040006946034801F032FDBDF8000008BD0000FC
:1020500076FF000808B50020009001226946034879
:1020600001F024FDBDF8000008BD00007CFF000861
:1020700008B50020009001226946034801F016FDD2
:10208000BDF8000008BD00007AFF000808B5002078
:10209000009001226946034801F008FDBDF80000E8
:1020A00008BD000078FF000801B50122694602481A
:1020B00001F010FD08BD000076FF000801B5012207
:1020C0006946024801F006FD08BD00007CFF0008DB
:1020D00001B501226946024801F0FCFC08BD000080
:1020E0007AFF000801B501226946024801F0F2FCBE
:1020F00008BD000078FF00082DE9F0474F48008830
:10210000C8284CDD4D480088FEF79DFA82464C49B0
:10211000FEF798F807464B49FEF7C6F80646FEF765
:10212000DCFA04460D4648494868FEF791FA06462F
:10213000464A474BFEF79DF9804622462B46FEF75E
:10214000F7FA1ED24348006820B9002004F0BCF81A
:10215000404908603F480068008841F28831884261
:1021600001DD012000E00020002864D0394800682B
:1021700004F0C6F80020374908600120364908609D
:1021800059E03448006830B13248006804F0B8F8CB
:1021900000203049086000202F4908604BE02748A4
:1021A00000880A2190FBF1FA5046FEF743FA0746F1
:1021B0004FF08041FDF7EEFF0646FEF78EFA04462B
:1021C0000D4621494868FEF743FA06461F4A204B50
:1021D000FEF74FF9804622462B46FEF7A9FA1DD29C
:1021E0001C48006820B9002004F06EF81949086006
:1021F00018480068008841F28831884201DD0120DA
:1022000000E00020B8B11348006804F079F800201D
:10221000104908600120104908600CE00D48006872
:1022200030B10C48006804F06BF8002009490860E0
:10223000002009490860BDE8F08700005800002030
:10224000CDCC8C3F00002041C80000202D431CEB6A
:10225000E2361A3F7C000020202000222DE9F041C8
:1022600025490868FEF7F4F90646244A244BFEF790
:1022700000F904460022234BFEF75AFA03D201204C
:102280002149086036E000201F4908601A490868A3
:10229000FEF7DEF90646194A194BFEF7EAF804463E
:1022A00000221A4BFEF72CFA21D213490868FEF7D8
:1022B000CFF90646114A124BFEF7DBF80446144AE2
:1022C000144BFEF735FA0ED80B490868FEF7C0F933
:1022D00006460A4A0A4BFEF7CCF804460C4A0E4B57
:1022E000FEF70EFA03D901200C49086002E0002035
:1022F0000A490860BDE8F081C80000202D431CEBAE
:10230000E2361A3F004070401820002200806640EC
:102310008DEDB5A0F7C6B0BEF7C6B03E1C200022BA
:1023200030B5044604254FF4302000F06FF8054620
:10233000042D17D10C48006940F002000A490861D9
:1023400008464461006940F0400008614FF43020C5
:1023500000F05CF805460448006941F6FD7108404C
:1023600001490861284630BD0020024004200B4985
:10237000C96801F0010109B101200EE00749C968EF
:1023800001F0040109B1022007E00449C96801F025
:10239000100109B1032000E0042070470020024032
:1023A0000348006940F0800001490861704700005F
:1023B0000020024070B504460D460426F00200F0ED
:1023C00025F80646042E11D10948006940F00100A5
:1023D000074908612580F00200F018F80646044815
:1023E000006941F6FE71084001490861304670BD40
:1023F0000020024002480349486003484860704793
:102400002301674500200240AB89EFCD00B50246AD
:102410000423FFF7ABFF034603E0FFF7A7FF0346E4
:10242000521E012B01D1002AF7D102B9052318460B
:1024300000BD2DE9F04102460025002600200023C2
:102440000024002791F803C00CF00F0591F803C099
:102450000CF0100CBCF1000F03D091F802C04CEA54
:10246000050591F800C0BCF1000F31D014680020C0
:102470002BE04FF0010C0CFA00F3B1F800C00CEAAD
:1024800003069E4220D183004FF00F0C0CFA03F795
:10249000BC4305FA03FC4CEA040491F803C0BCF108
:1024A000280F06D14FF0010C0CFA00FCC2F814C042
:1024B0000AE091F803C0BCF1480F05D14FF0010CC0
:1024C0000CFA00FCC2F810C0401C0828D1D31460DC
:1024D000B1F800C0BCF1FF0F34DD546800202EE0DD
:1024E00000F1080C4FF0010808FA0CF3B1F800C035
:1024F0000CEA03069E4221D183004FF00F0C0CFA28
:1025000003F7BC4305FA03FC4CEA040491F803C04A
:10251000BCF1280F05D100F1080C08FA0CF8C2F83C
:10252000148091F803C0BCF1480F07D100F1080CEA
:102530004FF0010808FA0CF8C2F81080401C082877
:10254000CED35460BDE8F081F0B50A4600230024E4
:102550000021002500F00046B6F1004F02D11D4ECB
:10256000F16901E01B4E7168C0F3034583B200F4CA
:102570004016B6F5401F08D121F07061154E7668FF
:1025800026F07066134F7E6012E000F48016B6F5F8
:10259000801F06D1032606FA05F4A14341F07061BD
:1025A00006E0460D360103FA06F6B14341F07061CC
:1025B00022B1460D360103FA06F6314300F000461B
:1025C000B6F1004F02D1034EF16101E0014E71609E
:1025D000F0BD0000000001400246002093680B405F
:1025E0000BB1012000E0002070474161704701619C
:1025F0007047000002460023002107E0074800EB77
:10260000810030F812000344481CC1B21429F5DBE4
:102610001420B3FBF0F080B2704700008405002066
:102620002DE9FF5F4FF0000AD3460120FFF7E2FFDC
:1026300083465846FEF70CF806460F460020FFF783
:10264000D9FF0190FEF704F80B4A0C4BCDE90201CB
:10265000FDF70FFF804632463B46FDF77CFF044600
:10266000FEF722F882460AF5617A0548C0F800A014
:10267000FFF7EAF8BDE8FF9F7662277662B7B640BB
:102680005000002010B5FFF701FD07490880FFF753
:10269000D3FC06490880FFF7EBFC05490880FFF7EB
:1026A000D9FC0449088010BD5C0000205A000020BD
:1026B0005E0000206000002070B53148006820B93D
:1026C000002003F001FE2E4908602E48007810B16A
:1026D000012853D118E0002409E02B4800EBC40086
:1026E000026841681046FFF7E7FA601CC4B2032C89
:1026F000F3DB00212248006803F006FE2148007841
:10270000401C2049087039E01D4800680088B0F579
:102710007A7F01DD012000E0002000282DD0002478
:1027200026E0194800EBC400026841681046FFF734
:10273000CFF905461DB140F25230854208D113A0B1
:1027400002F0AAFB1B480078401C1A49087002E0FE
:10275000194840F8245017480078032806DB002069
:10276000144908704FF4205013490860601CC4B22B
:10277000032CD6DB00200349087000BF00BF70BDEA
:10278000880000208C000020F80B002023B2E2CE4D
:10279000C2CFB5CDB3A3BAB2E2CAD4CAFDBEDDD3AF
:1027A000D0CEF3A3ACCCF8B9FDB1BEB4CEB2E2CA80
:1027B000D40D0A008D000020E40000200021174AFB
:1027C0001268174B1A60002009E0164A52F82020C0
:1027D0008A4202D9134A52F82010421CD0B2032870
:1027E000F3DB40F21632914203D901220E4B1A60FC
:1027F00002E000220C4B1A60094A126812B90A4A18
:1028000012680AB1012200E00022084B1A601A4641
:10281000126812B10122064B1A6070473001214242
:1028200024200022E40000201420002200200022A6
:102830007000002000BFFEE710B502210A48FFF734
:10284000D6FE01210848FFF7D2FE00F037F802213A
:102850000548FFF7CAFE00F031F801210248FFF7F2
:10286000C4FE00F02BF810BD0008014010B5022195
:102870000648FFF7BAFE01210448FFF7B8FE00F052
:102880001DF802210148FFF7B2FE10BD000801400B
:1028900010B502210848FFF7AAFE00F00FF8012149
:1028A0000548FFF7A4FE00F009F801210248FFF7F0
:1028B0009CFE00F003F810BD00080140032000BF9B
:1028C000011EA0F10102D0B2FAD1704770B50446E2
:1028D000FF2C01D03C4804703C48006820B900201F
:1028E00003F0F2FC394908603748007810B101283C
:1028F00067D113E0354800680088322801DD0120E7
:1029000000E0002048B103F0F3F800212F480068F0
:1029100003F0FAFC01202C49087052E02B480068B3
:102920000088B0F5FA7F01DD012000E0002070B1E1
:1029300001202749087000202349087000212348FE
:10294000006803F0E1FC00202249088038E003F031
:1029500019F8054635B1012D05D0022D12D0032DF1
:102960002CD11DE02AE00020194908701A4908708E
:10297000184908801449087000211448006803F0C1
:10298000C3FC1BE001201449087000201149088095
:102990000D49087000210D48006803F0B5FC0DE0FA
:1029A00001200D49087000200A4908800649087076
:1029B00000210648006803F0A7FC00BF00BF00BF6D
:1029C00000BF00BF70BD0000440000204000002098
:1029D0003C0000202C0000203D00002010B5FF200E
:1029E000FFF774FF36480078002826D13548007874
:1029F00040B93548007828B9002034490870344976
:102A0000086055E02F48007880B132A000F03EFE0B
:102A100001202B4908702C480078002848D036A0A7
:102A200000F034FE01202649087041E032A000F099
:102A30002DFE0120224908703AE03648006828B986
:102A4000002003F041FC3349086031E03148006860
:102A50000088B0F5FA7F01DD012000E0002080B1A0
:102A60002C48006803F04CFC00202A4908601449F7
:102A70000870FFF72BFF15480078401C13490870B9
:102A800016E01048007898B90F48007880B9002007
:102A90000E4908700E4908601E48006840B11D4884
:102AA000006803F02DFC00201A49086004490870F2
:102AB00006480078032802DD01200549086010BDA2
:102AC000450000203C0000203D0000204600002082
:102AD0004020002223D2C7B1EDCFB5CDB3A3BABAFF
:102AE000CDD2C7B1EDCFB5CDB3CDA8D0C5B3ACCAAB
:102AF000B1210D0A0000000023D2C7B1EDCFB5CD42
:102B0000B3A3BACDA8D0C5B3F6CFD6B4EDCEF321DA
:102B10000D0A0000480000204CF6CC400149086036
:102B2000704700000030004010B500F013F810BDF1
:102B300070B505460C4645F2555000F01FF8284682
:102B400000F010F8204600F013F800F003F8FFF74B
:102B5000E3FF70BD4AF6AA200149086070470000F3
:102B600000300040014948607047000000300040DC
:102B7000014988607047000000300040014908604A
:102B8000704700000030004070B5064622480068DB
:102B900020B9002003F098FB1F49086046B10021CE
:102BA0001D48006803F0B0FB00201C49088070BD80
:102BB0001948006802F0E2FE18490978401AC5B2C7
:102BC0004FF480711648FFF707FD0446012C05D12C
:102BD0001248008810B91148058018E0012C08D16E
:102BE0000A2D06DD012C12D10B48006802F0C6FE4A
:102BF000DDE7012C01D10A2D09DD44B90021064889
:102C0000006803F081FB002004490880CFE70248F8
:102C1000006802F0B3FECAE70400002008000020AC
:102C20000008014070B506462248006820B900201F
:102C300003F04AFB1F49086046B100211D480068A7
:102C400003F062FB00201C49088070BD1948006831
:102C500002F094FE18490978401AC5B24FF40041B9
:102C60001648FFF7B9FC0446012C05D1124800882C
:102C700010B91148058018E0012C08D10A2D06DD95
:102C8000012C12D10B48006802F078FEDDE7012C20
:102C900001D10A2D09DD44B900210648006803F07E
:102CA00033FB002004490880CFE70248006802F0A7
:102CB00065FECAE70C00002010000020000C014057
:102CC00010B5044614B1012028490870274800783F
:102CD000A0B34FF480712648FFF77EFC01280DD089
:102CE0004FF400412348FFF777FC012806D04FF44A
:102CF00000611F48FFF770FC012820D10A2002F074
:102D0000BBFD0020194908704FF480711848FFF787
:102D100063FC012800D110BD4FF400411548FFF7B6
:102D20005BFC012801D10220F5E74FF40061104857
:102D3000FFF752FC012817D10320ECE7FFE74FF41F
:102D400080710B48FFF748FC70B94FF40041094807
:102D5000FFF742FC40B94FF400610548FFF73CFC27
:102D600010B90120014908700020D4E700000020BC
:102D700000080140000C014010B52348006820B94C
:102D8000002003F0A1FA204908602048006820B91B
:102D90001F48006808B9012000E000201D490860B4
:102DA0001D4800681D49C1F888011D480068C1F828
:102DB000B0011C4800681C49C1F89C011B48006810
:102DC00001280DD11A490870002018490860012017
:102DD0001049091F086000210B48006803F094FAAD
:102DE0001348007870B10848006800880A2801DD9F
:102DF000012000E0002028B100200649091F0860DA
:102E00000B49087010BD0000780000201820002237
:102E10001C200022B881214228200022008021426B
:102E2000082000220C200022000021427000002017
:102E30007400002010B52848006830B127480068A9
:102E400088B10020244908600DE02448001D006876
:102E500048B12348006818B122A002F01DF802E032
:102E600001201D4908602D48006828B12C480068E1
:102E700010B10020294908601748006808B90120EE
:102E800000E000202549096809B9012100E000217E
:102E9000084380F001002349096888421AD00E488F
:102EA000006808B9012000E000201C49096809B940
:102EB000012100E00021084380F001001949086069
:102EC0000846006818B118A001F0E6FF02E01CA057
:102ED00001F0E2FF10BD0000382000221401214261
:102EE0002820002223BCF8C8A8CAC2BCFEA3BAB2DC
:102EF000E5C7B9C6DABCE4C9CFCBF8A3ACB2BBD640
:102F0000B4D0D0CBF8B6A8A3ACB5C8B4FDB3E4B583
:102F1000E7C7B9CDCBB3F60D0A000000342000227C
:102F2000008121420820002223BCF8C8A8CAC2BCE4
:102F3000FEA3BACFB5CDB3C9CFCBF80D0A000000C0
:102F400023BCF8C8A8CAC2BCFEA3BACFB5CDB3BDD6
:102F5000E2CBF80D0A00000070B500242F4800787D
:102F6000012813D10020FFF70FFEC5B235B90120AB
:102F7000FFF70AFE00202949087006E01E2D04DD37
:102F80000120FFF701FE02F01DFE0BE00020FFF71D
:102F9000FBFDB0F57A7F05DD0120FFF7F5FD01208F
:102FA0001E4908701E480078012813D10020FFF741
:102FB00039FEC5B235B90120FFF734FE00201849AB
:102FC000087006E01E2D04DD0120FFF72BFE02F045
:102FD00071FE0BE00020FFF725FEB0F57A7F05DDDE
:102FE0000120FFF71FFE01200D4908700020FFF7A8
:102FF00067FE044684B1012C04D0022C05D0032CBA
:1030000009D105E002F0DEFD05E002F053FE02E02A
:1030100002F0C2FE00BF00BF70BD0000A80000208B
:10302000A900002000BFFEE77047000070B5002136
:1030300000230F22C47804B3154C246804F4E06420
:10304000C4F5E064210AC1F10403CA40447804FADB
:1030500003F184781440214309010E4C0678A155F0
:10306000047804F01F050124AC4005786D11AD0013
:1030700005F1E025C5F8004109E0047804F01F05DA
:103080000124AC40044D0678761145F8264070BD09
:103090000CED00E000E400E080E100E002490143C3
:1030A000024A1160704700000000FA050CED00E0D4
:1030B00070B500240CE0002506E00020074901EB74
:1030C000C5010855681CC5B2802DF6DB601CC4B272
:1030D000082CF0DB00F00EF970BD000004010020A8
:1030E00000200CE0002106E00022064B03EBC103A8
:1030F0001A544A1CD1B28029F6DB421CD0B20828EF
:10310000F0DB70470401002010B504461CB9002113
:10311000A62000F014FA012C03D10021A72000F012
:103120000EFA10BD10B504463CB90021C82000F0CD
:1031300006FA0021A12000F002FA012C07D100219B
:10314000C02000F0FCF90021A02000F0F8F910BD2B
:10315000F0B514460B46CF1701EB5777C7F3C702FC
:10316000CF1701EB5777FF10A1EBC707FEB2012382
:10317000B340DDB24CB1134B03EBC0039B5C2B435C
:10318000104F07EBC007BB541AE00E4B03EBC00314
:103190009B5CDB430B4F07EBC007BB54094B03EBB6
:1031A000C0039B5C2B43074F07EBC007BB54054B89
:1031B00003EBC0039B5CDB43024F07EBC007BB5430
:1031C000F0BD00000401002008B50121042000F03A
:1031D000CBFA0320ADF8000014208DF80300032083
:1031E0008DF8020069464148FFF723F903213F4863
:1031F000FFF7FDF90121082000F0B6FAC020ADF874
:10320000000004208DF8030003208DF802006946B9
:103210003748FFF70EF90021AE2000F090F90021A9
:10322000084600F08CF90021102000F088F90021F8
:10323000402000F084F90021812000F080F9002175
:10324000CF2000F07CF90021A12000F078F90021C6
:10325000C82000F074F90021A62000F070F90021C8
:10326000A82000F06CF900213F2000F068F900214F
:10327000D32000F064F90021084600F060F9002135
:10328000D52000F05CF90021802000F058F90021E1
:10329000D92000F054F90021F12000F050F900216C
:1032A000DA2000F04CF90021122000F048F900214A
:1032B000DB2000F044F90021302000F040F900212B
:1032C000202000F03CF90021022000F038F9002114
:1032D0008D2000F034F90021142000F030F9FFF7C0
:1032E000E7FE0021AF2000F02AF908BD00080140E8
:1032F000000C014070B500242BE004F1B001C8B20D
:10330000002100F01CF90021084600F018F9002106
:10331000102000F014F9FFF78FFA782000F06EFC0F
:10332000FFF7B6FA402000F069FCFFF7B1FA00257C
:1033300009E0094901EBC501085D00F05FFCFFF7FA
:10334000A7FA681CC5B2802DF3DBFFF78FFA601C6B
:10335000C4B2082CD1DB70BD040100202DE9F84374
:1033600005460C4616462046FCF70DFFC7B28021E5
:10337000A1EB071000EBD071C1F347080DE00096F8
:103380002278681E4007010E2023404600F00AF80C
:1033900008F1100000F0FF08641C20780028EED12E
:1033A000BDE8F8832DE9FE4F0746884692461C4645
:1033B0000197CDF80080082C02D14FF006091FE0DC
:1033C0002046E31704EB5373DB1021464FEAE47CFD
:1033D00004EB5C7C4FEAEC0CA4EBCC0CBCF1000FD2
:1033E00002D04FF0010C01E04FF0000C6344224684
:1033F00004EBD27C4FEA6C0C03FB0CF31FFA83F94D
:10340000AAF1200086B2002566E0082C07D106EB61
:103410004600334901EB400010F805B025E00C2CC4
:1034200007D106EB46002F4901EB800010F805B0EC
:103430001BE0102C05D12C4800EB061010F805B04D
:1034400013E0182C07D106EBC600284901EB8000D9
:1034500010F805B009E0202C05D1254800EB8610B6
:1034600010F805B001E0BDE8FE8F002002901CE0DE
:103470000BF0010028B1414638460C9AFFF768FE70
:1034800009E00C9808B9012000E0002002464146FE
:103490003846FFF75DFE4FEA6B0B08F1010000F0C4
:1034A000FF080298401C80B2029002980828DFDBD7
:1034B000781CC7B2082C0BD004EBD4714A100199C8
:1034C000791A8A4204D1019F00980830C0B2009056
:1034D000DDF80080681C85B24D4596DB00BFC2E771
:1034E000D4650008FC670008706C00086072000872
:1034F000BC7F00082DE9F84106460F4614461D46DC
:10350000DDF81C8013E0CDF8008022782B46394688
:103510003046FFF747FF082D02D1B01DC6B205E0C7
:10352000284605EBD07106EB6101CEB2641C207811
:10353000202802DB20787E28E5DDBDE8F88170B523
:1035400005460C46FFF778F9782000F057FBFFF7A7
:103550009FF91CB1402000F051FB02E0002000F078
:103560004DFBFFF795F9284600F048FBFFF790F96F
:10357000FFF77CF970BD000010B51548006890B1E8
:103580001448006878B91448006860B913480068A6
:1035900048B91348006880B901201149086011A09A
:1035A00001F07AFC09E00E480068012805D10020EE
:1035B0000B49086010A001F06FFC0948006813492E
:1035C000086012487C3800681149086010BD00008E
:1035D00004200022002000222420002214200022A7
:1035E0000C20002223B9A6C2CABCB6A3BAC6F4B640
:1035F000AFCAE4B3F60D0A0023B9A6C2CABCB6A38B
:10360000BAB9D8B1D5CAE4B3F60D0A009081214207
:103610003C200022014908627047000000000E4271
:103620007047000010B50D48006810B10CA001F003
:1036300033FC0DE0012013490860642002F01CF9FE
:1036400000201149C1F8B4014FF4FA7002F014F9E6
:10365000024800680028EDD110BD00003001214271
:1036600023D6F7BFD8CFB5CDB3A3BABFAABBFACA8A
:10367000B1454D47B0B4C5A5B0B4CFC2A3A10D0AA2
:1036800000000000B4812142008021420BE000BF15
:103690000749098801F040010029F9D00178044A5E
:1036A000121D1180401C01780029F0D170470000E4
:1036B0000048004010B504467CB1702200214FF054
:1036C000804001F000F901220021900700F070FF16
:1036D0000121880700F07EFF08E000214FF08040C4
:1036E00000F078FF5021880601F074F810BD00004A
:1036F00001460020034A506820F4404008435060CF
:10370000704700000010024029B1064A5269024386
:10371000044B5A6104E0034A52698243014B5A61E7
:10372000704700000010024029B1064AD2690243E6
:10373000044BDA6104E0034AD2698243014BDA6147
:10374000704700000010024029B1064A1269024386
:10375000044B1A6104E0034A12698243014B1A6167
:10376000704700000010024029B1064A92690243E6
:10377000044B9A6104E0034A92698243014B9A61C7
:10378000704700000010024029B1064AD268024387
:10379000044BDA6004E0034AD2688243014BDA60EA
:1037A00070470000001002400149086070470000A7
:1037B0004004424230B500210022002400232D4D58
:1037C0006D6805F00C0121B1042905D0082923D129
:1037D00005E0294D056022E0274D05601FE0254DDD
:1037E0006D6805F47012234D6D6805F48034022570
:1037F00005EB92421CB9214D554305600BE01D4D70
:103800006D6805F400351DB11C4D5543056002E09F
:10381000194D5543056002E0174D056000BF00BF1C
:10382000144D6D6805F0F0010909154D6B5C0568D4
:10383000DD4045600F4D6D6805F4E061090A104DEB
:103840006B5C4568DD4085600A4D6D6805F460512C
:10385000C90A0B4D6B5C4568DD40C560054D6D6860
:1038600005F44041890B074D6B5CC568B5FBF3F56A
:10387000056130BD0010024000127A0000093D00D1
:10388000AB000020BB00002010B501460022002341
:1038900000204A11012A02D1094C236806E0022ABD
:1038A00002D1074C236A01E0054C636A01F01F0254
:1038B000012494401C400CB1012000E0002010BD08
:1038C0000010024000210B4A11700A4A203A82F887
:1038D0002010012802D0042808D103E00121054A64
:1038E000117004E00521034A117000E000BF00BF21
:1038F0007047000020100240014908607047000036
:103900003C0442420249096A0143014A116270477C
:10391000001002400348008840F010000149088070
:103920007047000004280040034800884FF6EF71FC
:1039300008400149088070470428004000210348DE
:103940000188001F008841EA004070471C280040A1
:1039500010B5002401214FF0C050FFF7E5FE012013
:10396000FFF758FEFDF7B0F90120FFF7ABFF04E0C9
:10397000601CC4B20A2001F07FFF4120FFF784FFE2
:1039800008B9FA2CF4DBFA2C01DB012010BD4FF44E
:103990008070FFF7B7FF0120FFF7AEFF00F042F89D
:1039A00000F04AF800F03EF8FFF7B4FF47F6FF706A
:1039B00000F028F800F036F8002000F004F8FFF7D7
:1039C000B3FF0020E2E710B5044601214FF0C050DC
:1039D000FFF7AAFE0120FFF71DFE204600F004F8C5
:1039E00000F020F810BD000000B50246FFF792FF7E
:1039F000100C03490880091D0A80FFF795FF00BDE0
:103A00001828004000B50246FFF784FFC2F30340C8
:103A100003490880091D0A80FFF786FF00BD0000EA
:103A20000828004000BF0348008800F0200000285C
:103A3000F9D0704704280040074800884FF6F77116
:103A400008400549088000BF0348008800F00800CE
:103A50000028F9D0704700000428004010B5092163
:103A600041F61F4000F048FD0020FFF723FE00F064
:103A700001F810BD10B505480068012805D10020E7
:103A8000FFF718FE00200149086010BD3020002219
:103A900010B50548006828B90120FFF70BFE01208A
:103AA0000149086010BD00003020002230B50346F7
:103AB0000C461546002207E0184600F008F824F8E6
:103AC00012009B1C501C82B2AA42F5DB30BD01469D
:103AD000088870472DE9F05F80468A461746B8F19E
:103AE000006F02D33848804501D3BDE8F09F002223
:103AF0000121364800F088FEFEF77CFCA8F1006B3F
:103B00004FEA9B25CBF34809C9F50074A74200DCB6
:103B10003C464DE04FF0006101EB85208A142C49B2
:103B2000FFF7C4FF00260BE009EB0600284931F837
:103B300010004FF6FF71884200D003E0701C86B27F
:103B4000A642F1DB00BFA6421BDA4FF0006101EB99
:103B50008520FEF7E5FB002608E03AF8160006EBA4
:103B600009011B4A22F81100701C86B2A642F4DB40
:103B70004FF0006101EB85208A14154900F02AF806
:103B800004E022465146404600F024F8A74200D106
:103B90000FE06D1C4FF000090AEB440AA044381BEB
:103BA00087B2B7F5007F02DD4FF4007400E03C46B9
:103BB000B0E700BFFEF7F4FB01221146034800F016
:103BC00023FE00BF91E7000000000108000800404C
:103BD000D40500202DE9F04105460E461746002485
:103BE00007E036F814102846FEF7E4FBAD1C601C15
:103BF00084B2BC42F5DBBDE8F081704770B5044685
:103C000000251BE004F0800020B102210D48FEF7E2
:103C1000EEFC03E002210B48FEF7E7FCFEF74EFE48
:103C200001210848FEF7E3FCFEF748FE01210548A4
:103C3000FEF7DBFC6006040E681CC5B2082DE1DB54
:103C400070BD00000008014010B500F001F810BD83
:103C50000CB50020019000903348006840F480309B
:103C60003149086000BF3048006800F4003000901F
:103C70000198401C0190009818B90198B0F5A06F08
:103C8000F1D12948006800F4003010B10120009003
:103C900001E0002000900098012843D123480068EB
:103CA00040F01000214908600846006820F0030039
:103CB00008600846006840F0020008601A48406842
:103CC000194948600846406848600846406840F422
:103CD000806048600846406820F47C1048600846D0
:103CE000406840F4E81048600846006840F0807082
:103CF000086000BF0C48006800F000700028F9D090
:103D00000948406820F003000749486008464068B9
:103D100040F00200486000BF0348406800F00C001B
:103D20000828F9D10CBD000000100240002002401C
:103D30002DE9FC5F8246BAF5FA7F01DD4FF4FA7A8D
:103D4000BAF13C0F01DA4FF03C0A1148A0F800A08C
:103D50005046FCF77DFC00220E4BCDE90001FCF73C
:103D600088FB804600220C4BFCF7F5FB0646002240
:103D7000084BFCF77BFB0446FCF796FC1FFA80FB24
:103D800059464FF0804000F0C7FDBDE8FC9F0000A1
:103D9000580000200020BC4000C082402DE9FE43B6
:103DA0000024A14600200090019002900090019014
:103DB00002902C480088FCF74BFC074600222A4B57
:103DC000FCF7C9FB05462A460B4628A1684601F0C8
:103DD00073F8012269461046FFF7C0FA00200090F0
:103DE000019002902348008820B1012807D00228C2
:103DF0002BD119E020A1684601F05EF82AE02048A6
:103E000000883C2190FBF1F0C4B21D48008890FB73
:103E1000F1F201FB120000F0FF094B46224619A106
:103E2000684601F049F815E018480088FCF710FCD6
:103E3000074600220C4BFCF78EFB05462A460B4634
:103E400013A1684601F038F804E013A1684601F0B8
:103E500033F800BF00BF012269460220FFF77EFA57
:103E6000BDE8FE835A00002000002440252E316664
:103E7000204100005C0000204E4F4C494D49540049
:103E80005E0000202564482025644D00600000206D
:103E9000252E31666B5768004C494D4954455252A6
:103EA00000000000FEB50020009001900290BC4888
:103EB000007830B1012805D0022825D0032800D190
:103EC000B4E06BE1B748006820B9002002F0FCF9CB
:103ED000B4490860B34800680088B0F57A7F01DD16
:103EE000012000E0002060B10020AD490870FFF71C
:103EF000DFF8AC48006802F003FA0020A949086026
:103F000001E0FFF74BFF49E1A748007805281ED2E2
:103F1000DFE800F0031E39546F000020009001908C
:103F20000290A2A1684600F0C7FF01226946104630
:103F3000FFF714FA00200090019002909DA16846BE
:103F400000F0BAFF012269460220FFF707FA6BE092
:103F5000002000900190029098A1684600F0ACFF0C
:103F6000012269461046FFF7F9F900200090019000
:103F7000029090A1684600F09FFF0122694602204E
:103F8000FFF7ECF950E000200090019002908DA125
:103F9000684600F091FF012269461046FFF7DEF9FE
:103FA000002000900190029088A1684600F084FFF4
:103FB000012269460220FFF7D1F935E00020009088
:103FC0000190029083A1684600F076FF01226946C5
:103FD0001046FFF7C3F900200090019002907BA1EA
:103FE000684600F069FF012269460220FFF7B6F932
:103FF0001AE0002000900190029078A1684600F03D
:104000005BFF012269461046FFF7A8F900200090E7
:10401000019002906DA1684600F04EFF01226946B2
:104020000220FFF79BF900BF00BFB7E05E480078B1
:1040300030B101282BD0022868D0032826D184E093
:10404000002000900190029065A1684600F034FFC6
:10405000012269461046FFF781F900200090019087
:10406000029061480088FCF7F3FA064600225F4B95
:10407000FCF771FA044622460B465DA1684600F043
:104080001BFF012269460220FFF768F984E0002047
:1040900000900190029052A1684600F00DFF0122AD
:1040A00069461046FFF75AF90020009001900290EF
:1040B00051480088062822D2DFE800F003080D12DC
:1040C000171C4EA1684600F0F7FE18E04DA16846A7
:1040D00000F0F2FE13E04DA1684600F0EDFE0EE0A8
:1040E0004CA1684600F0E8FE09E04CA1684600F0EB
:1040F000E3FE04E04BA1684600F0DEFE00BF00BF17
:10410000012269460220FFF729F945E000200090CE
:10411000019002902BA1684600F0CEFE0122694674
:104120001046FFF71BF900200090019002903F48D5
:1041300003883F4802883FA1684600F0BDFE012287
:1041400069460220FFF70AF926E00020009001905E
:10415000029020A1684600F0AFFE01226946104699
:10416000FFF7FCF80020009001900290344800888E
:10417000FCF76EFA064600221C4BFCF7ECF90446ED
:1041800022460B462FA1684600F096FE01226946A2
:104190000220FFF7E3F800BF00BF00BF00BFFEBD75
:1041A00098000020A4000020990000204D415849AB
:1041B0004D554D0043555252454E540050524546C0
:1041C0004552000054494D45000000004C494D49FE
:1041D00054000000454E4552475900004E4F000024
:1041E0004D415820435552009A00002000002440C1
:1041F000252E3166204100009C000020362E302004
:1042000041000000382E30204100000031322E30B5
:104210002041000031362E302041000032342E3053
:104220002041000033322E3020410000A000002049
:104230009E000020253032644820253032644D0035
:10424000A2000020252E31666B576800FEB50020C5
:104250000090019002900090019002901748006831
:10426000FCF7F6F90646164A164BFCF702F9044627
:1042700022460B4614A1684600F01EFE0122694644
:104280001046FFF76BF80020009001900290104854
:1042900000683C21B0FBF1F201FB12040C480068FD
:1042A000B0FBF1F523462A460AA1684600F004FE59
:1042B000012269460220FFF751F8FEBD6800002088
:1042C0002D431CEBE2361A3F252E31666B576800F2
:1042D0006C000020253032644820253032644D00C7
:1042E00008B501210C20FFF73FFA10208DF80300DC
:1042F00003208DF802001020ADF800006946484800
:10430000FEF797F80020474908604FF48040ADF869
:10431000000069464248FEF78CF80420ADF8000022
:1043200069463F48FEF785F84FF48050ADF800002D
:1043300069463B48FEF77DF88020ADF800006946ED
:104340003948FEF776F84FF40050ADF800006946A2
:104350003348FEF76EF804208DF803008002ADF8B4
:10436000000069463048FEF764F84FF40060ADF88D
:10437000000069462C48FEF75CF84FF48070ADF8F9
:10438000000069462848FEF754F84FF40040ADF8A5
:10439000000069462248FEF74CF80120ADF8000005
:1043A00069461F48FEF745F84020ADF80000694611
:1043B0001D48FEF73EF82020ADF8000069461A4877
:1043C000FEF737F82020ADF8000069461448FEF7E4
:1043D00030F800201549086015490860012015498A
:1043E00008600020144908601449086014490860F6
:1043F00014490860144908601449086014490860A9
:1044000014490860144908600120144908601449DF
:1044100008600020134908601349086008BD0000C7
:10442000000C014090812142000801400020002240
:1044300004200022082000220C200022102000224C
:1044400014200022182000221C20002220200022FC
:1044500024200022282000222C20002234200022A8
:10446000382000223C20002240200022042808D1CD
:104470004FF0E021096941F004014FF0E0221161A1
:1044800007E04FF0E021096921F004014FF0E0223C
:10449000116170477047000010B51348006840F084
:1044A00001001149086008464068104908400E495B
:1044B0004860084600680E4908400B4908600846F5
:1044C000006820F4802008600846406820F4FE0060
:1044D00048604FF41F008860FFF7B6FB4FF00060A4
:1044E0000449086010BD0000001002400000FFF801
:1044F000FFFFF6FE08ED00E030B589B005460C463A
:104500004FF0804000F072F801210846FFF70CF9E7
:1045100001210520FFF728F901211B48FEF714F8B7
:104520004FF40040ADF8200018208DF82300032040
:104530008DF8220008A91548FDF77BFFADF818504B
:10454000ADF814400020ADF81A00ADF8160005A92A
:104550004FF0804000F0E2F97020ADF80400012037
:10456000ADF806000020ADF80C0001A94FF0804026
:1045700000F054F90821C80600F09CF901218807D1
:1045800000F028F809B030BD000318000008014011
:1045900010B50121054800F026F9012805D10121B7
:1045A000024800F014F801F009FF10BD00080040B7
:1045B00030B5002301248C40A3B2048C9C430484B6
:1045C000048C02FA01F5ADB22C43048430BDCA4319
:1045D0000282704721B1028842F00102028004E0A9
:1045E00002884FF6FE731A400280704710B50446E9
:1045F0006848844208D10121C014FFF7C5F80021A2
:10460000E014FFF7C1F8C4E0B4F1804F08D10121F4
:104610000846FFF799F800210120FFF795F8B8E068
:104620005D48844208D101210220FFF78DF8002166
:104630000220FFF789F8ACE05848844208D10121F4
:104640000420FFF781F800210420FFF77DF8A0E0A7
:104650005348844208D101210820FFF775F8002152
:104660000820FFF771F894E04E48844208D10121F8
:104670001020FFF769F800211020FFF765F888E0A7
:104680004948844208D101212020FFF75DF800212C
:104690002020FFF759F87CE04448844208D10121EA
:1046A0004014FFF771F800216014FFF76DF870E017
:1046B0003F48844209D10121C804FFF765F8002171
:1046C0004FF40020FFF760F863E03A48844209D1D4
:1046D00001210805FFF758F800214FF48010FFF77B
:1046E00053F856E03448844209D101214805FFF7C8
:1046F0004BF800214FF40010FFF746F849E02F482F
:10470000844208D101214020FFF71EF800214020FB
:10471000FFF71AF83DE02A48844208D101218020A1
:10472000FFF712F800218020FFF70EF831E025484E
:10473000844208D101218015FFF706F80021A01559
:10474000FFF702F825E02048844209D1012108043E
:10475000FFF71AF800214FF48030FFF715F818E042
:104760001A48844209D101214804FFF70DF80021BD
:104770004FF40030FFF708F80BE01548844208D1E9
:1047800001218804FFF700F800214FF48020FEF794
:10479000FBFF10BD002C0140000400400008004059
:1047A000000C0040001000400014004000340140A4
:1047B000004C0140005001400054014000180040EE
:1047C000001C004000200040004001400044014027
:1047D000004801400A460021018B4FF68F731940B3
:1047E00011430183704730B50246002000230024A6
:1047F000158A05EA0103958905EA010413B10CB194
:10480000012000E0002030BD1AB183890B43838171
:1048100002E083898B4383817047000070B50024D8
:1048200000220023058C4FF6FE7635400584028C6D
:104830008388048B4FF68F752C40B51E2C400D8855
:104840002C43751E2A400D892A434D882A43144D56
:10485000A8420BD0134DA84208D0134DA84205D052
:10486000124DA84202D0124DA84213D14FF6F7754F
:104870002A404D892A434FF6FB752A408D882A43EA
:104880004FF6FF652B404FF6FF552B408D892B438C
:10489000CD892B4383800483CD888586028470BDB7
:1048A000002C014000340140004001400044014020
:1048B000004801400A460021018B4FF6F77319406A
:1048C00011430183704770B5034600200024184649
:1048D000183001258D40ACB21D8CA5431D8409B153
:1048E000082909D100EB6100056825F07005056015
:1048F0000568154305600EE00D1FC5F34E052844FD
:10490000056825F4E045056005684FF6FF7606EA80
:1049100002263543056070BD8186704700220288FB
:104920001D4B98420ED01D4B98420BD0B0F1804FDA
:1049300008D01B4B984205D01A4B984202D01A4B14
:10494000984204D14FF68F731A404B881A43174B85
:10495000984207D0164B984204D04FF6FF431A40B6
:10496000CB881A4302808B8883850B8803850A4B8A
:1049700098420BD0094B984208D00E4B984205D074
:104980000D4B984202D00D4B984201D10B7A038611
:104990000123838270470000002C01400034014055
:1049A0000004004000080040000C004000100040DF
:1049B0000014004000400140004401400048014014
:1049C00010B540F22551214800F0E7F8E0B31F4848
:1049D00000F09EF9C4B21E48008800F4004098BB65
:1049E0001B48008800F4804078B119480088C0F363
:1049F0000D0118488078001D814212D114480088AA
:104A000040F40040124908800BE011480088C0F3D0
:104A10000D00032805D10E48008840F480400C4961
:104A200008800B480088C0F30D000A490C54084860
:104A30000088401C0649088008460088C0F30D0025
:104A4000272801DD0020088010BD0000003801404B
:104A50002C000020D409002010B540F225511D483B
:104A600000F09BF810B31B4800F052F9C4B21A488A
:104A7000008800F40040C8B91748008800F480405E
:104A800060B10A2C03D000201349088020E01248AE
:104A9000008840F400401049088019E00D2C06D130
:104AA0000D48008840F480400B49088010E00A4817
:104AB0000088C0F30D0009490C5407480088401CC9
:104AC0000549088008460088C72801DD00200880C5
:104AD00010BD0000004400402E000020FC09002012
:104AE00010B540F225511D4800F057F810B31B488F
:104AF00000F00EF9C4B21A48008800F40040C8B9AA
:104B00001748008800F4804060B10A2C03D00020D0
:104B10001349088020E01248008840F40040104902
:104B2000088019E00D2C06D10D48008840F4804023
:104B30000B49088010E00A480088C0F30D000949BD
:104B40000C5407480088401C054908800846008826
:104B5000C72801DD0020088010BD0000004800408B
:104B600030000020C40A002021B1828942F40052A2
:104B7000828104E082894DF6FF731A40828170477A
:104B800002460020B1F5007F00D100BF13880B4022
:104B90000BB1012000E00020704770B502460024F0
:104BA00000230025002040F66A16B14200D100BF64
:104BB000C1F3421501F01F03012606FA03F3012D8C
:104BC00002D19689334006E0022D02D1168A334085
:104BD00001E0968A33400C12012606FA04F4168886
:104BE000344013B10CB1012000E0002070BDF0B5DD
:104BF0000346002400260025002040F66A17B9422B
:104C000000D100BF1846C1F3421401F01F0601276E
:104C100007FA06F5012C01D10C3004E0022C01D179
:104C2000103000E014301AB107682F43076002E02B
:104C30000768AF430760F0BD2DE9F04786B0054631
:104C40000E460024A24600BFA1460027B08900B14D
:104C500000BF2F462C8A4CF6FF700440F0880443B6
:104C60002C82AC894EF6F3100440B0883189084399
:104C7000718908430443AC81AC8A4FF6FF4004407D
:104C8000B0890443AC8201A8FEF794FD1F48874217
:104C900002D1DDF810A001E0DDF80CA0A88900F435
:104CA000004040B10AEBCA0000EB0A10316849002D
:104CB000B0FBF1F807E00AEBCA0000EB0A1031681C
:104CC0008900B0FBF1F86420B8FBF0F00401200982
:104CD000642101FB1089A88900F4004040B1322012
:104CE00000EBC900B0FBF1F000F00700044308E05E
:104CF000322000EB09106421B0FBF1F000F00F004E
:104D000004432C8106B0BDE8F08700000038014064
:104D100001468888C0F308007047C1F3080282800A
:104D20007047000008B52148007807283BD2DFE82B
:104D300000F0040517292A30310034E01C480068CF
:104D4000012802D1FFF782FA09E0012219A11046D9
:104D5000FEF704FB012219A10220FEF7FFFA22E070
:104D600018480078032802D1FFF770FA09E0012201
:104D700010A11046FEF7F2FA012213A10220FEF75D
:104D8000EDFA10E00FE0012210A11046FEF7E6FA5E
:104D900009E008E0012020230EA20021009008462F
:104DA000FEF7A8FB00BF00BF08BD000054000020B4
:104DB0002C2000225741495400000000554E4C4F12
:104DC000434B0000560000204556000053544F50FE
:104DD00000000000455252210000000010B5FEF70F
:104DE000F3F90020FEF790F90020FEF79BF910BDC3
:104DF00010B5FFF7F3FF01200F4908700F49087045
:104E00000F4800880F49088000200F4908800F488C
:104E100000883C2190FBF1F00D4908800B48008888
:104E20003C2190FBF1F201FB12000A4908800A487C
:104E300000880A49088010BD9800002099000020D1
:104E40005A0000209A0000209C0000205E000020F4
:104E50009E000020A000002060000020A200002092
:104E600010B5FEF73DF90648006810B1FFF75AFF8C
:104E700003E0FFF717F8FEF76FF8FEF73BFA10BDF7
:104E80002820002210B502480088FEF751FF10BD0F
:104E90005A00002000BFFEE70FB4054B10B503A970
:104EA000044A029800F0EEF810BC5DF814FB000014
:104EB00011590008280000200FB4084B10B504A9B0
:104EC00002AA039800F0DEF8044602A9002000F0D0
:104ED00070FC204610BC5DF814FB0000B3570008BE
:104EE00002E008C8121F08C1002AFAD170477047B3
:104EF000002001E001C1121F002AFBD17047000011
:104F00002DE9FF5F82B00021DDE90430020DDDF8FC
:104F100040B0034318D044F61050A2F2FF3242438F
:104F20001514119801281FD0A5EB0B00401C5FEA57
:104F3000000A4FF000064E4FDFF83891B046504659
:104F400015D5CAF1000413E0119801244AA30128E1
:104F500001D16FEA0B010298119AC0E90031C0E952
:104F6000024206B0BDE8F09FCBF10000DFE7044647
:104F70000021404A491842EB0450CDE9001012E0EC
:104F8000E00707D032463B4640464946FBF771FAF8
:104F90008046894632463B4610461946FBF769FA79
:104FA00006460F466410002CEAD1DDE90401DDE974
:104FB0000023BAF1000F06DAFBF75BFA42464B46D4
:104FC000FBF757FA05E0FBF7C6FA42464B46FBF7FC
:104FD000C2FA04460E460022284BFBF7A9FB03D871
:104FE0004FF0FF30014607E00022254B20463146B6
:104FF000FBF798F9FBF7A1FC102409E0002C0ADB71
:105000000A220023FBF7C2FB039B30321A55641EB1
:1050100050EA0102F2D1641C039AC4F11103144452
:10502000119A012A03D0012208430DD10AE0084356
:1050300004D000204FF0110B119072E7A3EB0B0589
:105040006D1E0DE05B4504DD4FF0000205F101052A
:1050500004E003DA4FF00002A5F10105002AECD0CC
:1050600002981199C0E90231C0E9004579E70000D2
:10507000000014400000F03F300000000000F0434A
:105080000000E03F2DE9FF4F95B09B46894606465C
:1050900000250FE2252877D100242746F84A012170
:1050A000059400E0044316F8013F203B01FA03F0A9
:1050B0001042F7D130782A2811D06FF02F033078C2
:1050C000A0F13002092A16D8059A44F0020402EB36
:1050D000820203EB42021044761C0590EFE759F878
:1050E000042B0592002A03DA504244F40054059040
:1050F00044F00204761C30782E2816D116F8010FE1
:1051000044F004042A280DD06FF02F023078A0F16B
:105110003003092B09D807EB870302EB4303C718B9
:10512000761CF3E759F8047B761C30786C280FD096
:1051300006DC4C2817D068280DD06A2814D104E06A
:10514000742810D07A280FD10DE044F400140AE03E
:1051500044F4801401E044F440147278824202D195
:1051600004F58014761C761C307866280BD013DC8E
:10517000582877D009DC002875D04528F6D0462875
:10518000F4D047281AD19DE118E0632835D064286F
:1051900079D0652812D195E1702873D008DC672892
:1051A000F1D069286FD06E280DD06F2806D1B5E0F8
:1051B00073282CD0752875D0782874D05A46179942
:1051C00090476D1C75E1C4F30250022809D00328F2
:1051D0000DD0D9F8001004280DD00D6009F1040994
:1051E00067E1D9F80010EA17C1E90052F6E7D9F8EB
:1051F00000100D80F2E70D70F0E719F8041B8DF830
:10520000001000208DF80100EA46012003E059F863
:1052100004AB4FF0FF3061074FF0000102D40DE006
:1052200008F101018846B9420FDA8045F8DB1AF827
:1052300008100029F4D108E008F1010188468142F4
:10524000FADB1AF808100029F6D105985B46A0EBA6
:10525000080721463846179A00F094FA284400EBD4
:10526000080507E04DE029E10DE01AF8010B5A4668
:1052700017999047B8F10108F7D25B4621463846A6
:10528000179A13E142E00A220092C4F302524FF04F
:10529000000A022A08D059F804CB032A4FEAEC711D
:1052A0000AD00DE029E02AE009F1070121F0070208
:1052B000F2E802C1914609E00FFA8CFC4FEAEC716A
:1052C000042A03D14FFA8CFC4FEAEC71002907DA6B
:1052D0000A460021DCF1000C61EB02012D2202E004
:1052E000220504D52B228DF80420012203E0E207D9
:1052F00001D02022F7E7904659E00A2102E010226F
:105300000DE010214FF0000A00910BE010224FF049
:10531000000A44F004040827009203E008224FF03A
:10532000000A0092C4F30252022A05D059F804CBB5
:105330000021032A08D009E009F1070121F0070242
:10534000F2E802C1914605E01FFA8CFC042A01D163
:105350000CF0FF0C4FF00008220728D5702806D06B
:10536000009B83F0100353EA0A0305D00EE04022AD
:105370008DF80420012208E05CEA010206D0302208
:105380008DF804208DF8050002229046009B83F0E2
:10539000080353EA0A030AD15CEA010201D1620759
:1053A00005D530228DF804204FF001087F1E5828C3
:1053B00004D034A003900EA802900DE036A0F9E7C7
:1053C00053466046009AFBF7E1F984460398825CF5
:1053D0000298401E029002705CEA0100F0D102982F
:1053E00006A9081A00F1200A600702D524F48034C7
:1053F00000E00127574502DDA7EB0A0000E000208E
:1054000000EB0A01009005984144401A0590E00322
:1054100006D45B462146179A059800F0B3F9054477
:10542000002706E001A85A46C05D179990476D1CF9
:105430007F1C4745F6DBE0030CD55B462146179AF7
:10544000059800F09FF9054404E030205A4617996A
:1054500090476D1C0099481E00900029F5DC08E07B
:10546000029802995A460078491C02911799904770
:105470006D1CBAF10001AAF1010AF1DC65E100003E
:10548000092801003031323334353637383961621A
:1054900063646566000000003031323334353637DE
:1054A00038394142434445460000000000F058F9B5
:1054B0000544761C307800287FF4ECAD19B02846FE
:1054C000BDE8F08F620700D4062709F1070222F039
:1054D000070CFCE80223E14603F000485FEA080CF1
:1054E00002D00FF2702C0DE05FEA045C02D50FF2DF
:1054F000682C07E05FEAC47C02D00FF2602C01E068
:10550000AFF2700C4FF0FF3823F00043CDF850C0DD
:1055100065280CD006DC452809D046281DD0472830
:105520003DD13DE0662818D067287ED138E00021C3
:10553000112F01DB112000E0781CCDE9000106A944
:105540000EA8FFF7DDFCDDE90F010E9A03910021A3
:10555000009207F1010A04914DE04FF000400097DE
:10556000CDE9011006A90EA8FFF7CAFCDDE90F027C
:1055700003920E9B11990022DDF80CA00093049277
:1055800011B9791C00EB010AB7EB0A0004D4C0F191
:10559000FF3007F1010A0490AAEB0700019044E0F4
:1055A000012F00DA01270021112F01DD112000E079
:1055B0003846CDE9000106A90EA8FFF7A1FCDDE9F8
:1055C0000F010E9A0391002104910092BA4621071F
:1055D0000CD40399514500DA8A46BAF1010F05DD72
:1055E000009AAAF10101515C302908D0B84202DAD0
:1055F00010F1040F06DA0121CDE9011015E0AAF13E
:105600000101E9E7002805DC049901440491AAEBB3
:10561000000102E0411C514500DD8A460499401A10
:10562000401C01904FF000400290200704D40198E4
:10563000504501DBCDF8048000208DF84F00029822
:105640000DF14F07B0F1004F25D02B200E9002989E
:105650004FF0020800280CDA404202902D200E90F4
:1056600007E00A210298FBF77BF83031029007F837
:10567000011DB8F10001A8F10108F2DC0298002830
:10568000EFD1791E0E980870307800F0200040F0BD
:10569000450007F8020D12A8C01B00F10708149876
:1056A000007800B1012000EB0A01019801EBE071E4
:1056B00005984144401A401E0590E00306D45B461D
:1056C0002146179A059800F05DF805441498007873
:1056D00018B15A46179990476D1CE00324D55B46D4
:1056E0002146179A059800F04DF805441CE00498EF
:1056F000002807DBDDE90301884203DD0098405CF8
:10570000179901E0179930205A469047049805F1FF
:105710000105401C04900198401E019004D12E20E8
:105720005A46179990476D1CBAF10001AAF1010A77
:10573000DDDC05E017F8010B5A46179990476D1C00
:10574000B8F10001A8F10108F4DC5B462146179A84
:105750000598ABE62D0000002B00000020000000A3
:105760002DE9F041044600251E461746880404D45E
:1057700005E039462020B0476D1C641EF9D5284647
:10578000BDE8F0812DE9F041044600251E46904613
:10579000C80301D5302700E02027880404D505E0A0
:1057A00041463846B0476D1C641EF9D52846BDE811
:1057B000F0810A68531C0B601070704710B50246E8
:1057C000514000230BE001F001044910C1F30E0128
:1057D00014B14AF20100414089B2581CC3B2082BEF
:1057E000F1DB084610BD2DE9F04305460E464FF6A5
:1057F000FF744FF0000909E028782146FFF7DEFF2B
:1058000004466D1C09F101001FFA80F9B145F3DB74
:105810002046E11704EB11610912A4EB0121CFB27C
:10582000E11704EB1161C1F3072848EA0724204679
:10583000BDE8F08310B56FF00400FEF717FE0A48CC
:1058400000680A49B0FBF1F0094908700846007881
:1058500000EB4001C1EBC0104FF6FF7101EAC00040
:105860000449088010BD00001400002000127A00D6
:105870004C0000204E0000200146114A12884A4385
:105880004FF0E0235A6100229A611A46126942F0F1
:1058900001021A6100BF4FF0E022106900F001021E
:1058A0001AB100F48032002AF5D04FF0E0221269DC
:1058B00022F001024FF0E0231A6100229A61704742
:1058C0004E0000200146114A12784A434FF0E0236F
:1058D0005A6100229A611A46126942F001021A6165
:1058E00000BF4FF0E022106900F001021AB100F48D
:1058F0008032002AF5D04FF0E022126922F0010236
:105900004FF0E0231A6100229A6170474C0000209A
:1059100000BF054A128802F04002002AF9D0C2B244
:10592000014B1B1D1A8070470048004010B500282D
:1059300021D0114B0022001F196803E0814203D8D7
:105940000A4649680029F9D152B11368841A9C4269
:1059500004D1006818441060104602E0506000E076
:10596000186039B102680B1A934203D10B681A44CC
:1059700002604968416010BDC000002001460888EF
:105980007047000008B55748008800F40040002820
:105990007ED05548007801287BD152480088801E6F
:1059A000C1B25148FFF71FFF00909DF800104D480D
:1059B0000088C0F30D00401E4B4A105C814269D143
:1059C0009DF8011047480088C0F30D00801E105C50
:1059D00081427BD11046C07800061146097940EA21
:1059E00001401146497940EA01201146897908436E
:1059F0003E4908601046C07900061146097A40EA1F
:105A000001401146497A40EA01201146897A08434B
:105A1000364948601046C07A00061146097B40EAC4
:105A200001401146497B40EA01201146897B084329
:105A30002E4988601046C07B00061146097C40EA6A
:105A400001401146497C40EA01201146897C084307
:105A5000264948611046C07C00061146097D40EA8F
:105A600001401146497D40EA01201146897D0843E5
:105A70001E4908611046C07E00061146097F40EAB3
:105A800001401146497F40EA01201146897F02E02A
:105A900026E020E01AE008431449C8601046C07FA1
:105AA0000006114691F8201040EA0140114691F895
:105AB000211040EA0120114691F8221008430B49B9
:105AC0008861002007490880012008BD00200549A1
:105AD00008800220F9E70020024908800320F4E74B
